{"abi":[{"type":"constructor","inputs":[],"stateMutability":"nonpayable"},{"type":"function","name":"allowance","inputs":[{"name":"owner","type":"address","internalType":"address"},{"name":"spender","type":"address","internalType":"address"}],"outputs":[{"name":"","type":"uint256","internalType":"uint256"}],"stateMutability":"view"},{"type":"function","name":"approve","inputs":[{"name":"spender","type":"address","internalType":"address"},{"name":"value","type":"uint256","internalType":"uint256"}],"outputs":[{"name":"","type":"bool","internalType":"bool"}],"stateMutability":"nonpayable"},{"type":"function","name":"balanceOf","inputs":[{"name":"account","type":"address","internalType":"address"}],"outputs":[{"name":"","type":"uint256","internalType":"uint256"}],"stateMutability":"view"},{"type":"function","name":"decimals","inputs":[],"outputs":[{"name":"","type":"uint8","internalType":"uint8"}],"stateMutability":"view"},{"type":"function","name":"factory","inputs":[],"outputs":[{"name":"","type":"address","internalType":"address"}],"stateMutability":"view"},{"type":"function","name":"initialize","inputs":[{"name":"_symbol","type":"string","internalType":"string"},{"name":"_maxSupply","type":"uint256","internalType":"uint256"},{"name":"_perMint","type":"uint256","internalType":"uint256"},{"name":"_price","type":"uint256","internalType":"uint256"},{"name":"_factory","type":"address","internalType":"address"}],"outputs":[],"stateMutability":"nonpayable"},{"type":"function","name":"maxSupply","inputs":[],"outputs":[{"name":"","type":"uint256","internalType":"uint256"}],"stateMutability":"view"},{"type":"function","name":"mint","inputs":[{"name":"to","type":"address","internalType":"address"}],"outputs":[],"stateMutability":"nonpayable"},{"type":"function","name":"name","inputs":[],"outputs":[{"name":"","type":"string","internalType":"string"}],"stateMutability":"view"},{"type":"function","name":"perMint","inputs":[],"outputs":[{"name":"","type":"uint256","internalType":"uint256"}],"stateMutability":"view"},{"type":"function","name":"price","inputs":[],"outputs":[{"name":"","type":"uint256","internalType":"uint256"}],"stateMutability":"view"},{"type":"function","name":"symbol","inputs":[],"outputs":[{"name":"","type":"string","internalType":"string"}],"stateMutability":"view"},{"type":"function","name":"totalSupply","inputs":[],"outputs":[{"name":"","type":"uint256","internalType":"uint256"}],"stateMutability":"view"},{"type":"function","name":"transfer","inputs":[{"name":"to","type":"address","internalType":"address"},{"name":"value","type":"uint256","internalType":"uint256"}],"outputs":[{"name":"","type":"bool","internalType":"bool"}],"stateMutability":"nonpayable"},{"type":"function","name":"transferFrom","inputs":[{"name":"from","type":"address","internalType":"address"},{"name":"to","type":"address","internalType":"address"},{"name":"value","type":"uint256","internalType":"uint256"}],"outputs":[{"name":"","type":"bool","internalType":"bool"}],"stateMutability":"nonpayable"},{"type":"event","name":"Approval","inputs":[{"name":"owner","type":"address","indexed":true,"internalType":"address"},{"name":"spender","type":"address","indexed":true,"internalType":"address"},{"name":"value","type":"uint256","indexed":false,"internalType":"uint256"}],"anonymous":false},{"type":"event","name":"Transfer","inputs":[{"name":"from","type":"address","indexed":true,"internalType":"address"},{"name":"to","type":"address","indexed":true,"internalType":"address"},{"name":"value","type":"uint256","indexed":false,"internalType":"uint256"}],"anonymous":false},{"type":"error","name":"ERC20InsufficientAllowance","inputs":[{"name":"spender","type":"address","internalType":"address"},{"name":"allowance","type":"uint256","internalType":"uint256"},{"name":"needed","type":"uint256","internalType":"uint256"}]},{"type":"error","name":"ERC20InsufficientBalance","inputs":[{"name":"sender","type":"address","internalType":"address"},{"name":"balance","type":"uint256","internalType":"uint256"},{"name":"needed","type":"uint256","internalType":"uint256"}]},{"type":"error","name":"ERC20InvalidApprover","inputs":[{"name":"approver","type":"address","internalType":"address"}]},{"type":"error","name":"ERC20InvalidReceiver","inputs":[{"name":"receiver","type":"address","internalType":"address"}]},{"type":"error","name":"ERC20InvalidSender","inputs":[{"name":"sender","type":"address","internalType":"address"}]},{"type":"error","name":"ERC20InvalidSpender","inputs":[{"name":"spender","type":"address","internalType":"address"}]}],"bytecode":{"object":"0x608060405234801562000010575f80fd5b506040518060400160405280600b81526020016a24b739b1b934b83a34b7b760a91b81525060405180604001604052806004815260200163054454d560e41b815250816003908162000063919062000139565b50600462000072828262000139565b50505f6005819055600681905560075550600880546001600160a01b031916905562000201565b634e487b7160e01b5f52604160045260245ffd5b600181811c90821680620000c257607f821691505b602082108103620000e157634e487b7160e01b5f52602260045260245ffd5b50919050565b601f82111562000134575f81815260208120601f850160051c810160208610156200010f5750805b601f850160051c820191505b8181101562000130578281556001016200011b565b5050505b505050565b81516001600160401b0381111562000155576200015562000099565b6200016d81620001668454620000ad565b84620000e7565b602080601f831160018114620001a3575f84156200018b5750858301515b5f19600386901b1c1916600185901b17855562000130565b5f85815260208120601f198616915b82811015620001d357888601518255948401946001909101908401620001b2565b5085821015620001f157878501515f19600388901b60f8161c191681555b5050505050600190811b01905550565b610be2806200020f5f395ff3fe608060405234801561000f575f80fd5b50600436106100f0575f3560e01c80636a62784211610093578063a9059cbb11610063578063a9059cbb146101d7578063c45a0155146101ea578063d5abeb0114610215578063dd62ed3e1461021e575f80fd5b80636a6278421461018b57806370a082311461019e57806395d89b41146101c6578063a035b1fe146101ce575f80fd5b806318160ddd116100ce57806318160ddd1461014c57806323b872dd14610154578063313ce56714610167578063631831fb14610176575f80fd5b806306fdde03146100f4578063095ea7b3146101125780630ed62b0214610135575b5f80fd5b6100fc610256565b60405161010991906107ba565b60405180910390f35b610125610120366004610820565b61027e565b6040519015158152602001610109565b61013e60065481565b604051908152602001610109565b60025461013e565b610125610162366004610848565b610297565b60405160128152602001610109565b610189610184366004610895565b6102ba565b005b61018961019936600461096c565b61034c565b61013e6101ac36600461096c565b6001600160a01b03165f9081526020819052604090205490565b6100fc610403565b61013e60075481565b6101256101e5366004610820565b610493565b6008546101fd906001600160a01b031681565b6040516001600160a01b039091168152602001610109565b61013e60055481565b61013e61022c36600461098c565b6001600160a01b039182165f90815260016020908152604080832093909416825291909152205490565b6060600960405160200161026a91906109f5565b604051602081830303815290604052905090565b5f3361028b8185856104a0565b60019150505b92915050565b5f336102a48582856104b2565b6102af85858561052d565b506001949350505050565b6008546001600160a01b03161561030e5760405162461bcd60e51b8152602060048201526013602482015272105b1c9958591e481a5b9a5d1a585b1a5e9959606a1b60448201526064015b60405180910390fd5b600961031a8682610ad1565b50600593909355600691909155600755600880546001600160a01b0319166001600160a01b0390921691909117905550565b6008546001600160a01b0316331461039e5760405162461bcd60e51b815260206004820152601560248201527413db9b1e48199858dd1bdc9e4818d85b881b5a5b9d605a1b6044820152606401610305565b6005546006546002546103b19190610b8d565b11156103f45760405162461bcd60e51b815260206004820152601260248201527145786365656473206d617820737570706c7960701b6044820152606401610305565b6104008160065461058a565b50565b606060098054610412906109bd565b80601f016020809104026020016040519081016040528092919081815260200182805461043e906109bd565b80156104895780601f1061046057610100808354040283529160200191610489565b820191905f5260205f20905b81548152906001019060200180831161046c57829003601f168201915b5050505050905090565b5f3361028b81858561052d565b6104ad83838360016105c2565b505050565b6001600160a01b038381165f908152600160209081526040808320938616835292905220545f198114610527578181101561051957604051637dc7a0d960e11b81526001600160a01b03841660048201526024810182905260448101839052606401610305565b61052784848484035f6105c2565b50505050565b6001600160a01b03831661055657604051634b637e8f60e11b81525f6004820152602401610305565b6001600160a01b03821661057f5760405163ec442f0560e01b81525f6004820152602401610305565b6104ad838383610694565b6001600160a01b0382166105b35760405163ec442f0560e01b81525f6004820152602401610305565b6105be5f8383610694565b5050565b6001600160a01b0384166105eb5760405163e602df0560e01b81525f6004820152602401610305565b6001600160a01b03831661061457604051634a1406b160e11b81525f6004820152602401610305565b6001600160a01b038085165f908152600160209081526040808320938716835292905220829055801561052757826001600160a01b0316846001600160a01b03167f8c5be1e5ebec7d5bd14f71427d1e84f3dd0314c0f7b2291e5b200ac8c7c3b9258460405161068691815260200190565b60405180910390a350505050565b6001600160a01b0383166106be578060025f8282546106b39190610b8d565b9091555061072e9050565b6001600160a01b0383165f90815260208190526040902054818110156107105760405163391434e360e21b81526001600160a01b03851660048201526024810182905260448101839052606401610305565b6001600160a01b0384165f9081526020819052604090209082900390555b6001600160a01b03821661074a57600280548290039055610768565b6001600160a01b0382165f9081526020819052604090208054820190555b816001600160a01b0316836001600160a01b03167fddf252ad1be2c89b69c2b068fc378daa952ba7f163c4a11628f55a4df523b3ef836040516107ad91815260200190565b60405180910390a3505050565b5f6020808352835180828501525f5b818110156107e5578581018301518582016040015282016107c9565b505f604082860101526040601f19601f8301168501019250505092915050565b80356001600160a01b038116811461081b575f80fd5b919050565b5f8060408385031215610831575f80fd5b61083a83610805565b946020939093013593505050565b5f805f6060848603121561085a575f80fd5b61086384610805565b925061087160208501610805565b9150604084013590509250925092565b634e487b7160e01b5f52604160045260245ffd5b5f805f805f60a086880312156108a9575f80fd5b853567ffffffffffffffff808211156108c0575f80fd5b818801915088601f8301126108d3575f80fd5b8135818111156108e5576108e5610881565b604051601f8201601f19908116603f0116810190838211818310171561090d5761090d610881565b816040528281528b6020848701011115610925575f80fd5b826020860160208301375f60208483010152809950505050505060208601359350604086013592506060860135915061096060808701610805565b90509295509295909350565b5f6020828403121561097c575f80fd5b61098582610805565b9392505050565b5f806040838503121561099d575f80fd5b6109a683610805565b91506109b460208401610805565b90509250929050565b600181811c908216806109d157607f821691505b6020821081036109ef57634e487b7160e01b5f52602260045260245ffd5b50919050565b6b024b739b1b934b83a34b7b7160a51b81525f600c5f8454610a16816109bd565b60018281168015610a2e5760018114610a4757610a77565b60ff198416888701528215158302880186019450610a77565b885f526020805f205f5b85811015610a6c5781548b82018a0152908401908201610a51565b505050858389010194505b5092979650505050505050565b601f8211156104ad575f81815260208120601f850160051c81016020861015610aaa5750805b601f850160051c820191505b81811015610ac957828155600101610ab6565b505050505050565b815167ffffffffffffffff811115610aeb57610aeb610881565b610aff81610af984546109bd565b84610a84565b602080601f831160018114610b32575f8415610b1b5750858301515b5f19600386901b1c1916600185901b178555610ac9565b5f85815260208120601f198616915b82811015610b6057888601518255948401946001909101908401610b41565b5085821015610b7d57878501515f19600388901b60f8161c191681555b5050505050600190811b01905550565b8082018082111561029157634e487b7160e01b5f52601160045260245ffdfea264697066735822122065b1879468f5c771a9685de2a04b87460074be128f121de3070b7d8a118e8b5164736f6c63430008140033","linkReferences":{}},"methodIdentifiers":{"allowance(address,address)":"dd62ed3e","approve(address,uint256)":"095ea7b3","balanceOf(address)":"70a08231","decimals()":"313ce567","factory()":"c45a0155","initialize(string,uint256,uint256,uint256,address)":"631831fb","maxSupply()":"d5abeb01","mint(address)":"6a627842","name()":"06fdde03","perMint()":"0ed62b02","price()":"a035b1fe","symbol()":"95d89b41","totalSupply()":"18160ddd","transfer(address,uint256)":"a9059cbb","transferFrom(address,address,uint256)":"23b872dd"},"id":28}