{"abi":[{"type":"constructor","inputs":[{"name":"_feeRecipient","type":"address","internalType":"address"},{"name":"_router","type":"address","internalType":"address"}],"stateMutability":"nonpayable"},{"type":"function","name":"FEE_PERCENT","inputs":[],"outputs":[{"name":"","type":"uint256","internalType":"uint256"}],"stateMutability":"view"},{"type":"function","name":"UNISWAP_V2_ROUTER","inputs":[],"outputs":[{"name":"","type":"address","internalType":"address"}],"stateMutability":"view"},{"type":"function","name":"buyMeme","inputs":[{"name":"tokenAddr","type":"address","internalType":"address"}],"outputs":[],"stateMutability":"payable"},{"type":"function","name":"deployInscription","inputs":[{"name":"symbol","type":"string","internalType":"string"},{"name":"totalSupply","type":"uint256","internalType":"uint256"},{"name":"perMint","type":"uint256","internalType":"uint256"},{"name":"price","type":"uint256","internalType":"uint256"}],"outputs":[{"name":"","type":"address","internalType":"address"}],"stateMutability":"nonpayable"},{"type":"function","name":"feeRecipient","inputs":[],"outputs":[{"name":"","type":"address","internalType":"address"}],"stateMutability":"view"},{"type":"function","name":"isDeployedToken","inputs":[{"name":"","type":"address","internalType":"address"}],"outputs":[{"name":"","type":"bool","internalType":"bool"}],"stateMutability":"view"},{"type":"function","name":"mintInscription","inputs":[{"name":"tokenAddr","type":"address","internalType":"address"}],"outputs":[],"stateMutability":"payable"},{"type":"function","name":"tokenCreators","inputs":[{"name":"","type":"address","internalType":"address"}],"outputs":[{"name":"","type":"address","internalType":"address"}],"stateMutability":"view"},{"type":"function","name":"tokenImplementation","inputs":[],"outputs":[{"name":"","type":"address","internalType":"address"}],"stateMutability":"view"},{"type":"event","name":"TokenDeployed","inputs":[{"name":"token","type":"address","indexed":true,"internalType":"address"},{"name":"creator","type":"address","indexed":true,"internalType":"address"},{"name":"symbol","type":"string","indexed":false,"internalType":"string"}],"anonymous":false},{"type":"event","name":"TokenMinted","inputs":[{"name":"token","type":"address","indexed":true,"internalType":"address"},{"name":"minter","type":"address","indexed":true,"internalType":"address"},{"name":"amount","type":"uint256","indexed":false,"internalType":"uint256"}],"anonymous":false},{"type":"error","name":"ERC1167FailedCreateClone","inputs":[]}],"bytecode":{"object":"0x60a060405234801562000010575f80fd5b50604051620021b5380380620021b58339810160408190526200003391620000be565b604051620000419062000094565b604051809103905ff0801580156200005b573d5f803e3d5ffd5b506001600160a01b03908116608052600180549382166001600160a01b03199485161790555f80549290911691909216179055620000f4565b610df180620013c483390190565b80516001600160a01b0381168114620000b9575f80fd5b919050565b5f8060408385031215620000d0575f80fd5b620000db83620000a2565b9150620000eb60208401620000a2565b90509250929050565b6080516112b1620001135f395f8181609901526101f701526112b15ff3fe608060405260043610610084575f3560e01c8063a82ed9ec11610057578063a82ed9ec14610154578063b341458a14610172578063ce7e8de814610187578063d3af5dfd146101bb578063eaf98d23146101ce575f80fd5b80632f3a3d5d146100885780633ef8af43146100d857806346904840146100f75780634c1c7ddf14610116575b5f80fd5b348015610093575f80fd5b506100bb7f000000000000000000000000000000000000000000000000000000000000000081565b6040516001600160a01b0390911681526020015b60405180910390f35b3480156100e3575f80fd5b506100bb6100f2366004610f20565b6101f0565b348015610102575f80fd5b506001546100bb906001600160a01b031681565b348015610121575f80fd5b50610144610130366004610fdc565b60026020525f908152604090205460ff1681565b60405190151581526020016100cf565b34801561015f575f80fd5b505f546100bb906001600160a01b031681565b610185610180366004610fdc565b610302565b005b348015610192575f80fd5b506100bb6101a1366004610fdc565b60036020525f90815260409020546001600160a01b031681565b6101856101c9366004610fdc565b61071e565b3480156101d9575f80fd5b506101e2600581565b6040519081526020016100cf565b5f8061021b7f0000000000000000000000000000000000000000000000000000000000000000610ac7565b60405163631831fb60e01b81529091506001600160a01b0382169063631831fb906102529089908990899089903090600401611041565b5f604051808303815f87803b158015610269575f80fd5b505af115801561027b573d5f803e3d5ffd5b5050506001600160a01b0382165f818152600260209081526040808320805460ff1916600117905560039091529081902080546001600160a01b0319163390811790915590519092507f645e9cc0b6633c2d425a900a1913215f5efdcaa291949130571d98b7b7c4be64906102f1908a90611080565b60405180910390a395945050505050565b6001600160a01b0381165f9081526002602052604090205460ff166103665760405162461bcd60e51b8152602060048201526015602482015274496e76616c696420746f6b656e206164647265737360581b60448201526064015b60405180910390fd5b5f8190505f816001600160a01b0316630ed62b026040518163ffffffff1660e01b8152600401602060405180830381865afa1580156103a7573d5f803e3d5ffd5b505050506040513d601f19601f820116820180604052508101906103cb9190611092565b826001600160a01b031663a035b1fe6040518163ffffffff1660e01b8152600401602060405180830381865afa158015610407573d5f803e3d5ffd5b505050506040513d601f19601f8201168201806040525081019061042b9190611092565b61043591906110bd565b90508034101561047e5760405162461bcd60e51b8152602060048201526014602482015273125b9cdd59999a58da595b9d081c185e5b595b9d60621b604482015260640161035d565b5f606461048c6005346110bd565b61049691906110da565b9050805f6104a482346110f9565b9050846001600160a01b031663095ea7b35f8054906101000a90046001600160a01b0316876001600160a01b0316630ed62b026040518163ffffffff1660e01b8152600401602060405180830381865afa158015610504573d5f803e3d5ffd5b505050506040513d601f19601f820116820180604052508101906105289190611092565b6040516001600160e01b031960e085901b1681526001600160a01b03909216600483015260248201526044016020604051808303815f875af1158015610570573d5f803e3d5ffd5b505050506040513d601f19601f82011682018060405250810190610594919061110c565b506040516335313c2160e11b81523360048201526001600160a01b03861690636a627842906024015f604051808303815f87803b1580156105d3575f80fd5b505af11580156105e5573d5f803e3d5ffd5b50506001546040516001600160a01b03909116925085156108fc02915085905f818181858888f19350505050158015610620573d5f803e3d5ffd5b506001600160a01b038087165f9081526003602052604080822054905192169183156108fc0291849190818181858888f19350505050158015610665573d5f803e3d5ffd5b506106708683610b36565b336001600160a01b0316866001600160a01b03167fdf1b2b09e9800d31c599375056be9f9e4eb37f078102643600c4e149714efaad876001600160a01b0316630ed62b026040518163ffffffff1660e01b8152600401602060405180830381865afa1580156106e1573d5f803e3d5ffd5b505050506040513d601f19601f820116820180604052508101906107059190611092565b60405190815260200160405180910390a3505050505050565b6001600160a01b0381165f9081526002602052604090205460ff1661077d5760405162461bcd60e51b8152602060048201526015602482015274496e76616c696420746f6b656e206164647265737360581b604482015260640161035d565b805f61078882610d1d565b9050816001600160a01b031663a035b1fe6040518163ffffffff1660e01b8152600401602060405180830381865afa1580156107c6573d5f803e3d5ffd5b505050506040513d601f19601f820116820180604052508101906107ea9190611092565b81106108495760405162461bcd60e51b815260206004820152602860248201527f556e6973776170207072696365206e6f7420626574746572207468616e206d696044820152676e7420707269636560c01b606482015260840161035d565b5f826001600160a01b0316630ed62b026040518163ffffffff1660e01b8152600401602060405180830381865afa158015610886573d5f803e3d5ffd5b505050506040513d601f19601f820116820180604052508101906108aa9190611092565b836001600160a01b031663a035b1fe6040518163ffffffff1660e01b8152600401602060405180830381865afa1580156108e6573d5f803e3d5ffd5b505050506040513d601f19601f8201168201806040525081019061090a9190611092565b61091491906110bd565b90508034101561095d5760405162461bcd60e51b8152602060048201526014602482015273125b9cdd59999a58da595b9d081c185e5b595b9d60621b604482015260640161035d565b6040516335313c2160e11b81523360048201526001600160a01b03841690636a627842906024015f604051808303815f87803b15801561099b575f80fd5b505af11580156109ad573d5f803e3d5ffd5b505050505f60646005346109c191906110bd565b6109cb91906110da565b90505f6109d882346110f9565b6001546040519192506001600160a01b03169083156108fc029084905f818181858888f19350505050158015610a10573d5f803e3d5ffd5b506001600160a01b038087165f9081526003602052604080822054905192169183156108fc0291849190818181858888f19350505050158015610a55573d5f803e3d5ffd5b50336001600160a01b0316866001600160a01b03167fdf1b2b09e9800d31c599375056be9f9e4eb37f078102643600c4e149714efaad876001600160a01b0316630ed62b026040518163ffffffff1660e01b8152600401602060405180830381865afa1580156106e1573d5f803e3d5ffd5b5f763d602d80600a3d3981f3363d3d373d3d3d363d730000008260601b60e81c175f526e5af43d82803e903d91602b57fd5bf38260781b17602052603760095ff090506001600160a01b038116610b31576040516330be1a3d60e21b815260040160405180910390fd5b919050565b5f546040805163076b158160e11b8152905184926001600160a01b03908116929084169163095ea7b39184918491630ed62b029160048083019260209291908290030181865afa158015610b8c573d5f803e3d5ffd5b505050506040513d601f19601f82011682018060405250810190610bb09190611092565b6040516001600160e01b031960e085901b1681526001600160a01b03909216600483015260248201526044016020604051808303815f875af1158015610bf8573d5f803e3d5ffd5b505050506040513d601f19601f82011682018060405250810190610c1c919061110c565b50806001600160a01b031663f305d7198484856001600160a01b0316630ed62b026040518163ffffffff1660e01b8152600401602060405180830381865afa158015610c6a573d5f803e3d5ffd5b505050506040513d601f19601f82011682018060405250810190610c8e9190611092565b6040516001600160e01b031960e086901b1681526001600160a01b03909216600483015260248201525f6044820181905260648201523060848201524260a482015260c40160606040518083038185885af1158015610cef573d5f803e3d5ffd5b50505050506040513d601f19601f82011682018060405250810190610d14919061112b565b50505050505050565b5f80546040805160028082526060820183526001600160a01b03909316928492602083019080368337019050509050816001600160a01b031663ad5c46486040518163ffffffff1660e01b8152600401602060405180830381865afa158015610d88573d5f803e3d5ffd5b505050506040513d601f19601f82011682018060405250810190610dac9190611156565b815f81518110610dbe57610dbe611171565b60200260200101906001600160a01b031690816001600160a01b0316815250508381600181518110610df257610df2611171565b6001600160a01b0392831660209182029290920101525f5416737a250d5630b4cf539739df2c5dacb4c659f2488d14610e365750670c7d713b49da00009392505050565b60405163d06ca61f60e01b81526001600160a01b0383169063d06ca61f90610e6c90670de0b6b3a7640000908590600401611185565b5f60405180830381865afa925050508015610ea857506040513d5f823e601f3d908101601f19168201604052610ea591908101906111da565b60015b610eb657505f199392505050565b80600181518110610ec957610ec9611171565b60200260200101519350505050919050565b634e487b7160e01b5f52604160045260245ffd5b604051601f8201601f1916810167ffffffffffffffff81118282101715610f1857610f18610edb565b604052919050565b5f805f8060808587031215610f33575f80fd5b843567ffffffffffffffff80821115610f4a575f80fd5b818701915087601f830112610f5d575f80fd5b8135602082821115610f7157610f71610edb565b610f83601f8301601f19168201610eef565b92508183528981838601011115610f98575f80fd5b81818501828501375f91830181019190915290989087013597506040870135966060013595509350505050565b6001600160a01b0381168114610fd9575f80fd5b50565b5f60208284031215610fec575f80fd5b8135610ff781610fc5565b9392505050565b5f81518084525f5b8181101561102257602081850181015186830182015201611006565b505f602082860101526020601f19601f83011685010191505092915050565b60a081525f61105360a0830188610ffe565b602083019690965250604081019390935260608301919091526001600160a01b0316608090910152919050565b602081525f610ff76020830184610ffe565b5f602082840312156110a2575f80fd5b5051919050565b634e487b7160e01b5f52601160045260245ffd5b80820281158282048414176110d4576110d46110a9565b92915050565b5f826110f457634e487b7160e01b5f52601260045260245ffd5b500490565b818103818111156110d4576110d46110a9565b5f6020828403121561111c575f80fd5b81518015158114610ff7575f80fd5b5f805f6060848603121561113d575f80fd5b8351925060208401519150604084015190509250925092565b5f60208284031215611166575f80fd5b8151610ff781610fc5565b634e487b7160e01b5f52603260045260245ffd5b5f60408201848352602060408185015281855180845260608601915082870193505f5b818110156111cd5784516001600160a01b0316835293830193918301916001016111a8565b5090979650505050505050565b5f60208083850312156111eb575f80fd5b825167ffffffffffffffff80821115611202575f80fd5b818501915085601f830112611215575f80fd5b81518181111561122757611227610edb565b8060051b9150611238848301610eef565b8181529183018401918481019088841115611251575f80fd5b938501935b8385101561126f57845182529385019390850190611256565b9897505050505050505056fea264697066735822122068ca6055faacc54730837d192fbc0694faa70cdc1470aa55448edc64d0caabb764736f6c63430008140033608060405234801562000010575f80fd5b506040518060400160405280600b81526020016a24b739b1b934b83a34b7b760a91b81525060405180604001604052806004815260200163054454d560e41b815250816003908162000063919062000139565b50600462000072828262000139565b50505f6005819055600681905560075550600880546001600160a01b031916905562000201565b634e487b7160e01b5f52604160045260245ffd5b600181811c90821680620000c257607f821691505b602082108103620000e157634e487b7160e01b5f52602260045260245ffd5b50919050565b601f82111562000134575f81815260208120601f850160051c810160208610156200010f5750805b601f850160051c820191505b8181101562000130578281556001016200011b565b5050505b505050565b81516001600160401b0381111562000155576200015562000099565b6200016d81620001668454620000ad565b84620000e7565b602080601f831160018114620001a3575f84156200018b5750858301515b5f19600386901b1c1916600185901b17855562000130565b5f85815260208120601f198616915b82811015620001d357888601518255948401946001909101908401620001b2565b5085821015620001f157878501515f19600388901b60f8161c191681555b5050505050600190811b01905550565b610be2806200020f5f395ff3fe608060405234801561000f575f80fd5b50600436106100f0575f3560e01c80636a62784211610093578063a9059cbb11610063578063a9059cbb146101d7578063c45a0155146101ea578063d5abeb0114610215578063dd62ed3e1461021e575f80fd5b80636a6278421461018b57806370a082311461019e57806395d89b41146101c6578063a035b1fe146101ce575f80fd5b806318160ddd116100ce57806318160ddd1461014c57806323b872dd14610154578063313ce56714610167578063631831fb14610176575f80fd5b806306fdde03146100f4578063095ea7b3146101125780630ed62b0214610135575b5f80fd5b6100fc610256565b60405161010991906107ba565b60405180910390f35b610125610120366004610820565b61027e565b6040519015158152602001610109565b61013e60065481565b604051908152602001610109565b60025461013e565b610125610162366004610848565b610297565b60405160128152602001610109565b610189610184366004610895565b6102ba565b005b61018961019936600461096c565b61034c565b61013e6101ac36600461096c565b6001600160a01b03165f9081526020819052604090205490565b6100fc610403565b61013e60075481565b6101256101e5366004610820565b610493565b6008546101fd906001600160a01b031681565b6040516001600160a01b039091168152602001610109565b61013e60055481565b61013e61022c36600461098c565b6001600160a01b039182165f90815260016020908152604080832093909416825291909152205490565b6060600960405160200161026a91906109f5565b604051602081830303815290604052905090565b5f3361028b8185856104a0565b60019150505b92915050565b5f336102a48582856104b2565b6102af85858561052d565b506001949350505050565b6008546001600160a01b03161561030e5760405162461bcd60e51b8152602060048201526013602482015272105b1c9958591e481a5b9a5d1a585b1a5e9959606a1b60448201526064015b60405180910390fd5b600961031a8682610ad1565b50600593909355600691909155600755600880546001600160a01b0319166001600160a01b0390921691909117905550565b6008546001600160a01b0316331461039e5760405162461bcd60e51b815260206004820152601560248201527413db9b1e48199858dd1bdc9e4818d85b881b5a5b9d605a1b6044820152606401610305565b6005546006546002546103b19190610b8d565b11156103f45760405162461bcd60e51b815260206004820152601260248201527145786365656473206d617820737570706c7960701b6044820152606401610305565b6104008160065461058a565b50565b606060098054610412906109bd565b80601f016020809104026020016040519081016040528092919081815260200182805461043e906109bd565b80156104895780601f1061046057610100808354040283529160200191610489565b820191905f5260205f20905b81548152906001019060200180831161046c57829003601f168201915b5050505050905090565b5f3361028b81858561052d565b6104ad83838360016105c2565b505050565b6001600160a01b038381165f908152600160209081526040808320938616835292905220545f198114610527578181101561051957604051637dc7a0d960e11b81526001600160a01b03841660048201526024810182905260448101839052606401610305565b61052784848484035f6105c2565b50505050565b6001600160a01b03831661055657604051634b637e8f60e11b81525f6004820152602401610305565b6001600160a01b03821661057f5760405163ec442f0560e01b81525f6004820152602401610305565b6104ad838383610694565b6001600160a01b0382166105b35760405163ec442f0560e01b81525f6004820152602401610305565b6105be5f8383610694565b5050565b6001600160a01b0384166105eb5760405163e602df0560e01b81525f6004820152602401610305565b6001600160a01b03831661061457604051634a1406b160e11b81525f6004820152602401610305565b6001600160a01b038085165f908152600160209081526040808320938716835292905220829055801561052757826001600160a01b0316846001600160a01b03167f8c5be1e5ebec7d5bd14f71427d1e84f3dd0314c0f7b2291e5b200ac8c7c3b9258460405161068691815260200190565b60405180910390a350505050565b6001600160a01b0383166106be578060025f8282546106b39190610b8d565b9091555061072e9050565b6001600160a01b0383165f90815260208190526040902054818110156107105760405163391434e360e21b81526001600160a01b03851660048201526024810182905260448101839052606401610305565b6001600160a01b0384165f9081526020819052604090209082900390555b6001600160a01b03821661074a57600280548290039055610768565b6001600160a01b0382165f9081526020819052604090208054820190555b816001600160a01b0316836001600160a01b03167fddf252ad1be2c89b69c2b068fc378daa952ba7f163c4a11628f55a4df523b3ef836040516107ad91815260200190565b60405180910390a3505050565b5f6020808352835180828501525f5b818110156107e5578581018301518582016040015282016107c9565b505f604082860101526040601f19601f8301168501019250505092915050565b80356001600160a01b038116811461081b575f80fd5b919050565b5f8060408385031215610831575f80fd5b61083a83610805565b946020939093013593505050565b5f805f6060848603121561085a575f80fd5b61086384610805565b925061087160208501610805565b9150604084013590509250925092565b634e487b7160e01b5f52604160045260245ffd5b5f805f805f60a086880312156108a9575f80fd5b853567ffffffffffffffff808211156108c0575f80fd5b818801915088601f8301126108d3575f80fd5b8135818111156108e5576108e5610881565b604051601f8201601f19908116603f0116810190838211818310171561090d5761090d610881565b816040528281528b6020848701011115610925575f80fd5b826020860160208301375f60208483010152809950505050505060208601359350604086013592506060860135915061096060808701610805565b90509295509295909350565b5f6020828403121561097c575f80fd5b61098582610805565b9392505050565b5f806040838503121561099d575f80fd5b6109a683610805565b91506109b460208401610805565b90509250929050565b600181811c908216806109d157607f821691505b6020821081036109ef57634e487b7160e01b5f52602260045260245ffd5b50919050565b6b024b739b1b934b83a34b7b7160a51b81525f600c5f8454610a16816109bd565b60018281168015610a2e5760018114610a4757610a77565b60ff198416888701528215158302880186019450610a77565b885f526020805f205f5b85811015610a6c5781548b82018a0152908401908201610a51565b505050858389010194505b5092979650505050505050565b601f8211156104ad575f81815260208120601f850160051c81016020861015610aaa5750805b601f850160051c820191505b81811015610ac957828155600101610ab6565b505050505050565b815167ffffffffffffffff811115610aeb57610aeb610881565b610aff81610af984546109bd565b84610a84565b602080601f831160018114610b32575f8415610b1b5750858301515b5f19600386901b1c1916600185901b178555610ac9565b5f85815260208120601f198616915b82811015610b6057888601518255948401946001909101908401610b41565b5085821015610b7d57878501515f19600388901b60f8161c191681555b5050505050600190811b01905550565b8082018082111561029157634e487b7160e01b5f52601160045260245ffdfea264697066735822122065b1879468f5c771a9685de2a04b87460074be128f121de3070b7d8a118e8b5164736f6c63430008140033","linkReferences":{}},"methodIdentifiers":{"FEE_PERCENT()":"eaf98d23","UNISWAP_V2_ROUTER()":"a82ed9ec","buyMeme(address)":"d3af5dfd","deployInscription(string,uint256,uint256,uint256)":"3ef8af43","feeRecipient()":"46904840","isDeployedToken(address)":"4c1c7ddf","mintInscription(address)":"b341458a","tokenCreators(address)":"ce7e8de8","tokenImplementation()":"2f3a3d5d"},"id":27}